:10013A00D3EF9400EE940040147D6E7C00ED1D70A8
:0D014A00011CED4C70F7EF1F70E61E80E306
:010157002285
:10000300759850438920438780758DF3758BF3D2A0
:100013008ED2ACD2AF752F00753004E4F52DF52EDA
:10002300F529F52A7408252AF87635052AE52A7074
:100033000205296420452970EBC2A6309811C298A5
:100043007408252EF8A699052EE52E7002052D7449
:1000530007252EF8E6B4230BD3E52E9420E52D9443
:10006300004008E52E6420452D70D0852D2F852E68
:1000730030E5306420452F700774072530F8762368
:10008300E4F52BF52CC3E52C9530E52B952F400398
:100093000201327408252CF8E6F528D3945A500F40
:1000A300E528C39441400874BF2528F528802DE531
:1000B30028D3947A500FE528C394614008E5282497
:1000C300B9F5288017E528B42105752834800DE596
:1000D30028B423057528368003752835E528C4130D
:1000E300540724FF92A5E528541FC4540F24FF92FC
:1000F300A4E528540F131313541F24FF92A3E528D8
:1001030054071313543F24FF92A2E5285403C31347
:1001130024FF92A1E5281392A0D2A67F647E001249
:10012300013AC2A6052CE52C7002052B020088E4D7
:07013300F52DF52E02003E40
:03000000020158A2
:0C015800787FE4F6D8FD758130020003CA
:00000001FF
