:10000300FC04FC0012641008F714549414F4040064
:100013000F040F00047E011D13115599513F110068
:1000230020242424FE23222020FF20222CA0200091
:10003300000848847F02414020130C142241F80039
:100043000000007F494949494949497F00000000B0
:100053008141211D214181FF89898989898181000C
:10006300808080808080808080808080808080000D
:10007300000000000000000000000000000000007D
:1000830080804020100804C30408102040808000B2
:1000930000000000000000FF00000000000000005E
:1000A3000000F808080808090E08080808080000F6
:1000B30080601F000000000000000000000000003E
:1000C30080A0908E888888FF8888888888808000B0
:1000D300000000FC44444444444444FC0000000049
:1000E30000FE20203F2000FC26A57C2424FC0000E9
:1000F300807F0101FF00080D0B0909FF09090800B2
:1001030000000000C0F8FC7CFCFCE0800000000064
:100113000000101E1F1F0706070F1F1F1C000000F3
:1001230000000000FCFCFCCCCCFCFCB80000000090
:10013300000000001F1F1F18181F1F0F07000000DB
:10014300000000C0F0F8FC1C1C0C1C1C000000008C
:1001530000000001070F1F1C18181C1C00000000E2
:10016300000000FCFCFC0C0C1C1CFCF8F000000064
:100173000000001F1F1F18181C1C1F0F0700000082
:100183000000000000FCFCFCCCCCCC0C0000000008
:1001930000000000001F1F1F18181818000000009F
:1001A3000000000000FCFCFC8C8C8C0C00000000A8
:1001B30000000000001F1F1F0101010000000000DC
:1001C300000000E0F8F83C1C8C8C9C9C9C00000018
:1001D300000000070F1F1E1C19191F1F1F0000001E
:1001E300000000FCFCFCC0C0C0C0FCFCFC00000024
:1001F3000000001F1F1F000000001F1F1F00000042
:1002030000000000000000FCFCFC000000000000F7
:10021300000000000000001F1F1F0000000000007E
:100223000000000000000000FCFCFC0000000000D7
:10023300000000000018181E1F0F0300000000003C
:1002430000000000FCFCFCE0F0FC3C1C040000008F
:10025300000000001F1F1F03071F1F1C18000000C2
:100263000000000000FCFCFC000000000000000097
:1002730000000000001F1F1F1818181800000000BE
:1002830000FCFCFC7CFCF08080F0FCFCFCFC00002F
:10029300001F1F1F00031F1F1F0F011F1F1F000031
:1002A300000000FCFCFCFCF0C080FCFCFC00000037
:1002B3000000001F1F1F0001071F1F1F1F0000005A
:1002C3000000C0F0F8FC1C0C0C1CFCF8F0C0000093
:1002D300000001070F1F1C18181C1F0F0701000047
:1002E30000000000FCFCFC8C8CFCFCFC700000009B
:1002F300000000001F1F1F0101010100000000009A
:100303000000C0F0F8FC1C0C0C1CFCF8F0C0000052
:10031300000001070F1F1C18181C3F3F3721200046
:1003230000000000FCFCFC8CDCFCFC7800000000FE
:10033300000000001F1F1F03071F1F1C18000000E1
:100343000000000078FCFCDCCC8C9C1C000000004E
:10035300000000001C1C19191F1F1F0F00000000C4
:100363000000000C0C0CFCFCFC0C0C0C000000004E
:100373000000000000001F1F1F000000000000001D
:10038300000000FCFCFC00000000FCFCFC00000082
:10039300000000070F1F1C18181E1F0F030000008A
:1003A3000000001CFCFCF08080F0FCFC1C00000042
:1003B3000000000000071F1F1F1F070000000000B0
:1003C3000C7CFCFCC0C0FCFCFCFCE000F8FC7C04E6
:1003D3000000071F1F1F1F01000F1F1F1F07000023
:1003E300000000041C7CFCF0F0FC7C1C04000000FA
:1003F300000000181C1F1F07071F1F1C1000000010
:10040300000000041C7CFCF0E0FCFC1C0400000069
:100413000000000000001F1F1F1F0000000000005D
:10042300000000000C0C8CCCFCFC3C1C0C000000FD
:10043300000000101C1E1F1F1918181818000000B8
:100443000000000000606060E0E0E0800000000069
:10045300000000000E1F1F191D1F1F1F00000000BA
:1004630000000000FCFCFCE060E0E0C000000000D5
:10047300000000001F1F1F1C181F1F0F000000009B
:100483000000000000C0E0E0E060E0E000000000E9
:1004930000000000000F1F1F1C181C1C00000000A0
:1004A30000000000C0E0E060E0FCFCFC0000000095
:1004B300000000071F1F1F181C1F1F1F0000000044
:1004C3000000000080C0E0E060E0E0C00000000049
:1004D30000000000071F1F1F1B1B1B1B0000000049
:1004E300000000000060F8FCFC7C6C0000000000D1
:1004F3000000000000001F1F1F000000000000009C
:1005030000000000C0E0E060E0E0E0E00000000088
:1005130000000007DFDFDFD8FCFF7F3F00000000A3
:1005230000000000FCFCFCE060E0E0C00000000014
:10053300000000001F1F1F00001F1F1F00000000FE
:100543000000000000000CECECEC000000000000D8
:10055300000000000000001F1F1F0000000000003B
:100563000000000000000CECECEC000000000000B8
:10057300000000000080C0FFFF7F000000000000BB
:1005830000000000FCFCFC80E0E0E0200000000034
:10059300000000001F1F1F070F1F1C180000000092
:1005A30000000000000000FCFCFC00000000000054
:1005B300000000000000001F1F1F000000000000DB
:1005C3000000E0E0E060E0E0E0E060E0E0E0800028
:1005D30000001F1F1F00001F1F1F001F1F1F1F00E2
:1005E30000000000E0E0E0E060E0E0C000000000A8
:1005F300000000001F1F1F00001F1F1F000000003E
:1006030000000000C0E0E0E060E0E0C000000000A7
:10061300000000000F1F1F18181F1F0F030000000A
:1006230000000000E0E0E0E060E0E0C00000000067
:1006330000000000FFFFFF1C181F1F0F0000000039
:1006430000000000C0E0E060E0E0E0E00000000047
:10065300000000071F1F1F181CFFFFFF0000000002
:10066300000000000000E0E0E06060000000000027
:100673000000000000001F1F1F000000000000001A
:100683000000000000C0E0E06060600000000000C7
:100693000000000000191B1B1F1F1F0000000000AB
:1006A300000000000060F8F8F8606000000000003F
:1006B3000000000000000F1F1F18180000000000BA
:1006C30000000000E0E0E00000E0E0E000000000E7
:1006D300000000000F1F1F181C1F1F1F0000000039
:1006E30000000000E0E0E08080E0E0E000000000C7
:1006F3000000000000071F1F1F1F0700000000006D
:100703000000E0E0E000C0E0E0E000E0E0E0000046
:100713000000000F1F1F1F070F1F1F1F0F000000E8
:100723000000000020E0E0E0C0E0E0600000000026
:1007330000000000181C1F0F0F1F1E1800000000F0
:1007430000000000E0E0E08000E0E0E020000000C6
:10075300000000008083FFFFFF3F07000000000050
:1007630000000000006060E0E0E0E0E00000000066
:10077300000000001C1E1F1F1F1B19180000000093
:1007830000000000000000FCFC000000000000006E
:10079300000000000000001B1B0000000000000020
:1007A3000000000000000000000000000000000046
:1007B3000000000000000000000000000000000036
:100DB700C2A58A807F027E00120DC8D2A67F027E5E
:010DC700002B
:100DC800E4FDFCC3ED9FEC9E50070DBD00010C80B7
:0F0DD800F2E4FFFE0FBF00010EEF640A4E70F54C
:010DE70022E9
:100E3100C2A4D2A5E4FBD2A67F02FE120DC8C2A6AF
:090E4100E47003D38001C350EBFF
:010E4A002285
:0D0E4B00AA07120E31C2A4120DB7C2A622D2
:100DE8007F647E00120DC8D2A1D2A27F647E001259
:100DF8000DC87F3E120E4B7FB8120E4B7FC0120EED
:0B0E08004B7F40120E4B7F3F020E4B51
:0D0E5800AA07120E31D2A4120DB7C2A622B5
:100D8200C2A1C2A27FB8120E4B7F40120E4BE4F5F5
:100D92005EE55E24B8FF120E4BE4F9E92440FF122F
:100DA2000E4BE4FF120E5809B940F0055EE55EC332
:040DB200940840DD84
:010DB600221A
:0E0D28002403F5827D1074013EAB82FA7F0237
:080D36008F5E8D5F8A608B6106
:100D3E00E4F9F562E55E24B829FF120E4BE55F2457
:100D4E0040FF120E4BE4F562E975F010A47C00250D
:100D5E0062FFEC35F0FEE5612FF582E5603EF5832E
:100D6E00E493FF120E580562E562C3941040D90950
:030D7E00B902C1F6
:010D8100224F
:100E1300D3EF9400EE940040147D6E7C00ED1D70C2
:0D0E2300011CED4C70F7EF1F70E61E80E320
:010E3000229F
:1007C300120D82C2A1D2A27A007B03E4FDFF120DB7
:1007D300367A077B837D10E4FF120D367A007B2384
:1007E300E4FD7F02120D367A007B437D107F0212F7
:1007F3000D367A007B637D207F02120D367A007BF3
:10080300837D307F02120D36D2A1C2A27A007BA370
:10081300E4FD7F02120D367A007BC37D107F021246
:100823000D367A007BE37D207F02120D36E4F5520C
:10083300F553E55325E02410F87600087635055383
:10084300E553700205526420455270E6E4F554F511
:1008530055209603020934309008755600755701E8
:100863008005E4F556F55730910875580075590120
:100873008005E4F558F559309208755A00755B0107
:100883008005E4F55AF55B309308755C00755D01EE
:100893008005E4F55CF55D30940875080075090181
:1008A3008005E4F508F509309508750A00750B0114
:1008B3008005E4F50AF50BE55925E0FFE55833FE1D
:1008C300E5572FFDE5563EFCE55BAE5A7802C33390
:1008D300CE33CED8F92DFDEC3EFCE55DAE5C78035E
:1008E300C333CE33CED8F92DFDEC3EFCE509C4F875
:1008F300540FC868FFE508C454F048FEED2FFDEC23
:100903003EFCE50BAE0A7805C333CE33CED8F92DC2
:10091300F551EC3EF550E55525E02410F8A65008B6
:10092300A6510555E555700205547F657E00120EEC
:1009330013AF55EF25E0240EF8E6FC08E664364CC9
:100943006003020854EF25E0240EF876000876359C
:10095300120DE8120D82C2A1D2A2E511AE107805E4
:10096300C333CE33CED8F92403F58274013EAB8270
:10097300FAE4FDFF120D36E513AE127805C333CE4C
:1009830033CED8F92403F58274013EAB82FA7D108D
:10099300E4FF120D36E515AE147805C333CE33CE1E
:1009A300D8F92403F58274013EAB82FA7D20E4FF7B
:1009B300120D36E517AE167805C333CE33CED8F90C
:1009C3002403F58274013EAB82FA7D30E4FF120DFD
:1009D30036E521AE207805C333CE33CED8F92403D0
:1009E300F58274013EAB82FAE4FD7F02120D36E517
:1009F30023AE227805C333CE33CED8F9120D28E5C2
:100A030025AE247805C333CE33CED8F92403F5823B
:100A13007D20120D2EE527AE267805C333CE33CEC7
:100A2300D8F92403F58274013EAB82FA7D307F024C
:100A3300120D36E531AE307805C333CE33CED8F957
:100A43002403F58274013EAB82FAE4FD7F04120DA8
:100A530036E533AE327805C333CE33CED8F924032B
:100A6300F58274013EAB82FA7D107F04120D36E5E8
:100A730035AE347805C333CE33CED8F92403F582AB
:100A830074013EAB82FA7D207F04120D36E537AE4A
:100A9300367805C333CE33CED8F92403F5827401F7
:100AA3003EAB82FA7D307F04120D36E541AE4078CD
:100AB30005C333CE33CED8F92403F58274013EAB9C
:100AC30082FAE4FD7F06120D36E543AE427805C394
:100AD30033CE33CED8F92403F58274013EAB82FAC8
:100AE3007D107F06120D36E545AE447805C333CE3F
:100AF30033CED8F92403F58274013EAB82FA7D200C
:100B03007F06120D36E547AE467805C333CE33CEA6
:100B1300D8F92403F58274013EAB82FA7D307F0657
:100B2300120D36D2A1C2A2E519AE187805C333CE91
:100B330033CED8F92403F58274013EAB82FAE4FD87
:100B4300FF120D36E51BAE1A7805C333CE33CED86C
:100B5300F92403F58274013EAB82FA7D10E4FF129F
:100B63000D36E51DAE1C7805C333CE33CED8F9243C
:100B730003F58274013EAB82FA7D20E4FF120D3649
:100B8300E51FAE1E7805C333CE33CED8F92403F563
:100B93008274013EAB82FA7D30E4FF120D36E52903
:100BA300AE287805C333CE33CED8F92403F5827447
:100BB300013EAB82FAE4FD7F02120D36E52BAE2A2D
:100BC3007805C333CE33CED8F9120D28E52DAE2CDC
:100BD3007805C333CE33CED8F92403F58274013EAE
:100BE300AB82FA7D207F02120D36E52FAE2E7805FB
:100BF300C333CE33CED8F92403F58274013EAB82DE
:100C0300FA7D307F02120D36E539AE387805C333ED
:100C1300CE33CED8F92403F58274013EAB82FAE4D5
:100C2300FD7F04120D36E53BAE3A7805C333CE3370
:100C3300CED8F92403F58274013EAB82FA7D107F8E
:100C430004120D36E53DAE3C7805C333CE33CED822
:100C5300F92403F58274013EAB82FA7D207F0412EE
:100C63000D36E53FAE3E7805C333CE33CED8F924F7
:100C730003F58274013EAB82FA7D307F04120D3698
:100C8300E549AE487805C333CE33CED8F92403F50E
:100C93008274013EAB82FAE4FD7F06120D36E54B0A
:100CA300AE4A7805C333CE33CED8F92403F5827424
:100CB300013EAB82FA7D107F06120D36E54DAE4C38
:100CC3007805C333CE33CED8F92403F58274013EBD
:100CD300AB82FA7D207F06120D36E54FAE4E7805C6
:100CE300C333CE33CED8F92403F58274013EAB82ED
:100CF300FA7D307F06120D36E4F554F555F552F5BD
:100D030053C3E5539420E55294004003020854E58D
:100D13005325E02410F876000876350553E5537023
:050D2300E0055280DC38
:03000000020E6588
:0C0E6500787FE4F6D8FD7581620207C3B7
:00000001FF
